{
  "_format": "hh-sol-artifact-1",
  "contractName": "Box",
  "sourceName": "contracts/Box.sol",
  "abi": [
    {
      "anonymous": false,
      "inputs": [
        {
          "indexed": true,
          "internalType": "address",
          "name": "owner",
          "type": "address"
        },
        {
          "indexed": true,
          "internalType": "uint256",
          "name": "tokenId",
          "type": "uint256"
        },
        {
          "indexed": false,
          "internalType": "string",
          "name": "name",
          "type": "string"
        },
        {
          "indexed": false,
          "internalType": "uint256",
          "name": "amount",
          "type": "uint256"
        }
      ],
      "name": "CompanyMinted",
      "type": "event"
    },
    {
      "anonymous": false,
      "inputs": [
        {
          "indexed": true,
          "internalType": "address",
          "name": "user",
          "type": "address"
        },
        {
          "indexed": false,
          "internalType": "uint256",
          "name": "amount",
          "type": "uint256"
        }
      ],
      "name": "LoanRepaid",
      "type": "event"
    },
    {
      "anonymous": false,
      "inputs": [
        {
          "indexed": true,
          "internalType": "address",
          "name": "user",
          "type": "address"
        },
        {
          "indexed": false,
          "internalType": "uint256",
          "name": "newScore",
          "type": "uint256"
        }
      ],
      "name": "ReputationUpdated",
      "type": "event"
    },
    {
      "anonymous": false,
      "inputs": [
        {
          "indexed": true,
          "internalType": "address",
          "name": "user",
          "type": "address"
        }
      ],
      "name": "SoulboundTokenMinted",
      "type": "event"
    },
    {
      "inputs": [
        {
          "internalType": "uint256",
          "name": "tokenId",
          "type": "uint256"
        }
      ],
      "name": "getCompanyDetails",
      "outputs": [
        {
          "internalType": "string",
          "name": "name",
          "type": "string"
        },
        {
          "internalType": "address",
          "name": "owner",
          "type": "address"
        },
        {
          "internalType": "uint256",
          "name": "tokenAmount",
          "type": "uint256"
        }
      ],
      "stateMutability": "view",
      "type": "function"
    },
    {
      "inputs": [
        {
          "internalType": "address",
          "name": "user",
          "type": "address"
        }
      ],
      "name": "getReputation",
      "outputs": [
        {
          "internalType": "uint256",
          "name": "",
          "type": "uint256"
        }
      ],
      "stateMutability": "view",
      "type": "function"
    },
    {
      "inputs": [],
      "name": "getTotalMinted",
      "outputs": [
        {
          "internalType": "uint256",
          "name": "",
          "type": "uint256"
        }
      ],
      "stateMutability": "view",
      "type": "function"
    },
    {
      "inputs": [
        {
          "internalType": "address",
          "name": "user",
          "type": "address"
        }
      ],
      "name": "getUserCompanies",
      "outputs": [
        {
          "internalType": "uint256[]",
          "name": "",
          "type": "uint256[]"
        }
      ],
      "stateMutability": "view",
      "type": "function"
    },
    {
      "inputs": [
        {
          "internalType": "address",
          "name": "user",
          "type": "address"
        }
      ],
      "name": "hasSoulboundToken",
      "outputs": [
        {
          "internalType": "bool",
          "name": "",
          "type": "bool"
        }
      ],
      "stateMutability": "view",
      "type": "function"
    },
    {
      "inputs": [
        {
          "internalType": "string",
          "name": "name",
          "type": "string"
        },
        {
          "internalType": "uint256",
          "name": "tokenAmount",
          "type": "uint256"
        }
      ],
      "name": "mintCompany",
      "outputs": [],
      "stateMutability": "nonpayable",
      "type": "function"
    },
    {
      "inputs": [
        {
          "internalType": "uint256",
          "name": "amount",
          "type": "uint256"
        }
      ],
      "name": "repayLoan",
      "outputs": [],
      "stateMutability": "nonpayable",
      "type": "function"
    }
  ],
  "bytecode": "0x608060405234801561001057600080fd5b506112a7806100206000396000f3fe608060405234801561001057600080fd5b506004361061007d5760003560e01c80639c89a0e21161005b5780639c89a0e214610100578063ab7b1c8914610130578063ce271c0d1461014c578063daf64aa5146101685761007d565b8063068e4f69146100825780630ca1c5c9146100b2578063889d77b8146100d0575b600080fd5b61009c600480360381019061009791906108ea565b61019a565b6040516100a991906109df565b60405180910390f35b6100ba610231565b6040516100c79190610a10565b60405180910390f35b6100ea60048036038101906100e591906108ea565b61023a565b6040516100f79190610a46565b60405180910390f35b61011a600480360381019061011591906108ea565b610290565b6040516101279190610a10565b60405180910390f35b61014a60048036038101906101459190610a8d565b6102d9565b005b61016660048036038101906101619190610c00565b610594565b005b610182600480360381019061017d9190610a8d565b61073b565b60405161019193929190610cea565b60405180910390f35b6060600760008373ffffffffffffffffffffffffffffffffffffffff1673ffffffffffffffffffffffffffffffffffffffff16815260200190815260200160002080548060200260200160405190810160405280929190818152602001828054801561022557602002820191906000526020600020905b815481526020019060010190808311610211575b50505050509050919050565b60008054905090565b6000600360008373ffffffffffffffffffffffffffffffffffffffff1673ffffffffffffffffffffffffffffffffffffffff16815260200190815260200160002060009054906101000a900460ff169050919050565b6000600260008373ffffffffffffffffffffffffffffffffffffffff1673ffffffffffffffffffffffffffffffffffffffff168152602001908152602001600020549050919050565b6000811161031c576040517f08c379a000000000000000000000000000000000000000000000000000000000815260040161031390610d9a565b60405180910390fd5b80600160003373ffffffffffffffffffffffffffffffffffffffff1673ffffffffffffffffffffffffffffffffffffffff168152602001908152602001600020600082825461036b9190610de9565b925050819055503373ffffffffffffffffffffffffffffffffffffffff167fc200a1f31dd659e356e0f112c82558e25f49f7b0f84438691cd96f5cb3558823826040516103b89190610a10565b60405180910390a2600a600260003373ffffffffffffffffffffffffffffffffffffffff1673ffffffffffffffffffffffffffffffffffffffff16815260200190815260200160002060008282546104109190610de9565b925050819055503373ffffffffffffffffffffffffffffffffffffffff167ffc577563f1b9a0461e24abef1e1fcc0d33d3d881f20b5df6dda59de4aae2c821600260003373ffffffffffffffffffffffffffffffffffffffff1673ffffffffffffffffffffffffffffffffffffffff1681526020019081526020016000205460405161049c9190610a10565b60405180910390a2600360003373ffffffffffffffffffffffffffffffffffffffff1673ffffffffffffffffffffffffffffffffffffffff16815260200190815260200160002060009054906101000a900460ff16610591576001600360003373ffffffffffffffffffffffffffffffffffffffff1673ffffffffffffffffffffffffffffffffffffffff16815260200190815260200160002060006101000a81548160ff0219169083151502179055503373ffffffffffffffffffffffffffffffffffffffff167f14eacfe48f2377ba0e380c9a27c815737f241d08f039b078b3ae77f7deb18a5060405160405180910390a25b50565b600081116105d7576040517f08c379a00000000000000000000000000000000000000000000000000000000081526004016105ce90610e8f565b60405180910390fd5b6000805490506000808154809291906105ef90610eaf565b9190505550826004600083815260200190815260200160002090816106149190611103565b50336005600083815260200190815260200160002060006101000a81548173ffffffffffffffffffffffffffffffffffffffff021916908373ffffffffffffffffffffffffffffffffffffffff160217905550816006600083815260200190815260200160002081905550600760003373ffffffffffffffffffffffffffffffffffffffff1673ffffffffffffffffffffffffffffffffffffffff168152602001908152602001600020819080600181540180825580915050600190039060005260206000200160009091909190915055803373ffffffffffffffffffffffffffffffffffffffff167fe43a4dfdaef69604112bdfef406d2f540d182f2eb9e4f1348b0558f36e8ad859858560405161072e9291906111d5565b60405180910390a3505050565b60606000806000548410610784576040517f08c379a000000000000000000000000000000000000000000000000000000000815260040161077b90611251565b60405180910390fd5b600460008581526020019081526020016000206005600086815260200190815260200160002060009054906101000a900473ffffffffffffffffffffffffffffffffffffffff1660066000878152602001908152602001600020548280546107eb90610f26565b80601f016020809104026020016040519081016040528092919081815260200182805461081790610f26565b80156108645780601f1061083957610100808354040283529160200191610864565b820191906000526020600020905b81548152906001019060200180831161084757829003601f168201915b505050505092509250925092509193909250565b6000604051905090565b600080fd5b600080fd5b600073ffffffffffffffffffffffffffffffffffffffff82169050919050565b60006108b78261088c565b9050919050565b6108c7816108ac565b81146108d257600080fd5b50565b6000813590506108e4816108be565b92915050565b600060208284031215610900576108ff610882565b5b600061090e848285016108d5565b91505092915050565b600081519050919050565b600082825260208201905092915050565b6000819050602082019050919050565b6000819050919050565b61095681610943565b82525050565b6000610968838361094d565b60208301905092915050565b6000602082019050919050565b600061098c82610917565b6109968185610922565b93506109a183610933565b8060005b838110156109d25781516109b9888261095c565b97506109c483610974565b9250506001810190506109a5565b5085935050505092915050565b600060208201905081810360008301526109f98184610981565b905092915050565b610a0a81610943565b82525050565b6000602082019050610a256000830184610a01565b92915050565b60008115159050919050565b610a4081610a2b565b82525050565b6000602082019050610a5b6000830184610a37565b92915050565b610a6a81610943565b8114610a7557600080fd5b50565b600081359050610a8781610a61565b92915050565b600060208284031215610aa357610aa2610882565b5b6000610ab184828501610a78565b91505092915050565b600080fd5b600080fd5b6000601f19601f8301169050919050565b7f4e487b7100000000000000000000000000000000000000000000000000000000600052604160045260246000fd5b610b0d82610ac4565b810181811067ffffffffffffffff82111715610b2c57610b2b610ad5565b5b80604052505050565b6000610b3f610878565b9050610b4b8282610b04565b919050565b600067ffffffffffffffff821115610b6b57610b6a610ad5565b5b610b7482610ac4565b9050602081019050919050565b82818337600083830152505050565b6000610ba3610b9e84610b50565b610b35565b905082815260208101848484011115610bbf57610bbe610abf565b5b610bca848285610b81565b509392505050565b600082601f830112610be757610be6610aba565b5b8135610bf7848260208601610b90565b91505092915050565b60008060408385031215610c1757610c16610882565b5b600083013567ffffffffffffffff811115610c3557610c34610887565b5b610c4185828601610bd2565b9250506020610c5285828601610a78565b9150509250929050565b600081519050919050565b600082825260208201905092915050565b60005b83811015610c96578082015181840152602081019050610c7b565b60008484015250505050565b6000610cad82610c5c565b610cb78185610c67565b9350610cc7818560208601610c78565b610cd081610ac4565b840191505092915050565b610ce4816108ac565b82525050565b60006060820190508181036000830152610d048186610ca2565b9050610d136020830185610cdb565b610d206040830184610a01565b949350505050565b7f52657061796d656e7420616d6f756e74206d757374206265206772656174657260008201527f207468616e203000000000000000000000000000000000000000000000000000602082015250565b6000610d84602783610c67565b9150610d8f82610d28565b604082019050919050565b60006020820190508181036000830152610db381610d77565b9050919050565b7f4e487b7100000000000000000000000000000000000000000000000000000000600052601160045260246000fd5b6000610df482610943565b9150610dff83610943565b9250828201905080821115610e1757610e16610dba565b5b92915050565b7f546f6b656e20616d6f756e74206d75737420626520677265617465722074686160008201527f6e20300000000000000000000000000000000000000000000000000000000000602082015250565b6000610e79602383610c67565b9150610e8482610e1d565b604082019050919050565b60006020820190508181036000830152610ea881610e6c565b9050919050565b6000610eba82610943565b91507fffffffffffffffffffffffffffffffffffffffffffffffffffffffffffffffff8203610eec57610eeb610dba565b5b600182019050919050565b7f4e487b7100000000000000000000000000000000000000000000000000000000600052602260045260246000fd5b60006002820490506001821680610f3e57607f821691505b602082108103610f5157610f50610ef7565b5b50919050565b60008190508160005260206000209050919050565b60006020601f8301049050919050565b600082821b905092915050565b600060088302610fb97fffffffffffffffffffffffffffffffffffffffffffffffffffffffffffffffff82610f7c565b610fc38683610f7c565b95508019841693508086168417925050509392505050565b6000819050919050565b6000611000610ffb610ff684610943565b610fdb565b610943565b9050919050565b6000819050919050565b61101a83610fe5565b61102e61102682611007565b848454610f89565b825550505050565b600090565b611043611036565b61104e818484611011565b505050565b5b818110156110725761106760008261103b565b600181019050611054565b5050565b601f8211156110b75761108881610f57565b61109184610f6c565b810160208510156110a0578190505b6110b46110ac85610f6c565b830182611053565b50505b505050565b600082821c905092915050565b60006110da600019846008026110bc565b1980831691505092915050565b60006110f383836110c9565b9150826002028217905092915050565b61110c82610c5c565b67ffffffffffffffff81111561112557611124610ad5565b5b61112f8254610f26565b61113a828285611076565b600060209050601f83116001811461116d576000841561115b578287015190505b61116585826110e7565b8655506111cd565b601f19841661117b86610f57565b60005b828110156111a35784890151825560018201915060208501945060208101905061117e565b868310156111c057848901516111bc601f8916826110c9565b8355505b6001600288020188555050505b505050505050565b600060408201905081810360008301526111ef8185610ca2565b90506111fe6020830184610a01565b9392505050565b7f436f6d70616e7920646f6573206e6f7420657869737400000000000000000000600082015250565b600061123b601683610c67565b915061124682611205565b602082019050919050565b6000602082019050818103600083015261126a8161122e565b905091905056fea2646970667358221220590945ad692b1df0213fc23ea1c7f25e1a5a921fba907c2f7fbe226e149c406b64736f6c63430008180033",
  "linkReferences": {},
  "deployedLinkReferences": {}
}